:100000000C9461000C947E000C947E000C947E0095
:100010000C947E000C947E000C947E000C947E0068
:100020000C947E000C947E000C947E000C947E0058
:100030000C947E000C947E000C947E000C947E0048
:100040000C9489010C947E000C947E000C947E002C
:100050000C947E000C947E000C947E000C947E0028
:100060000C947E000C947E00000000002400270009
:100070002A0000000000250028002B0000000000DE
:1000800023002600290004040404040404040202DA
:100090000202020203030303030301020408102007
:1000A0004080010204081020010204081020000012
:1000B0000008000201000003040700000000000027
:1000C000000011241FBECFEFD8E0DEBFCDBF11E08E
:1000D000A0E0B1E0ECE6F9E002C005900D92A83096
:1000E000B107D9F721E0A8E0B1E001C01D92A1312C
:1000F000B207E1F70E94D3010C94B4040C94000001
:10010000833081F028F4813099F08230A9F008958D
:100110008730A9F08830C9F08430B1F48091800034
:100120008F7D03C0809180008F7780938000089539
:1001300084B58F7784BD089584B58F7DFBCF809182
:10014000B0008F778093B00008958091B0008F7DCC
:10015000F9CFCF93DF93282F30E0F901E255FF4F1D
:100160008491F901E656FF4FD491F901EA57FF4F08
:10017000C491CC23A1F081110E948000EC2FF0E00B
:10018000EE0FFF1FE458FF4FA591B491EC91ED23C2
:1001900081E090E009F480E0DF91CF91089580E064
:1001A00090E0FACF1F93CF93DF93282F30E0F9012F
:1001B000E255FF4F8491F901E656FF4FD491F901C2
:1001C000EA57FF4FC491CC23A9F0162F81110E944A
:1001D0008000EC2FF0E0EE0FFF1FEE58FF4FA591CF
:1001E000B4918FB7F894EC91111108C0D095DE232B
:1001F000DC938FBFDF91CF911F910895DE2BF8CF55
:10020000CF93DF9390E0FC01E656FF4F24918A578D
:100210009F4FFC0184918823D1F090E0880F991FB3
:10022000FC01E859FF4FA591B491FC01EE58FF4F36
:10023000C591D491623071F49FB7F8943C91822FAC
:10024000809583238C93E8812E2B28839FBFDF9199
:10025000CF9108958FB7F894EC912E2B2C938FBFEC
:10026000F6CF3FB7F89480910D0190910E01A091C7
:100270000F01B091100126B5A89B05C02F3F19F0C2
:100280000196A11DB11D3FBFBA2FA92F982F882716
:10029000BC01CD01620F711D811D911D42E0660FF1
:1002A000771F881F991F4A95D1F708958F929F92C3
:1002B000AF92BF92CF92DF92EF92FF926B017C01DF
:1002C0000E9431014B015C01C114D104E104F1042D
:1002D000B9F00E943101681979098A099B09683EC1
:1002E00073408105910580F321E0C21AD108E1082D
:1002F000F10888EE880E83E0981EA11CB11CE4CFA3
:10030000FF90EF90DF90CF90BF90AF909F908F9035
:1003100008951F920F920FB60F9211242F933F93BF
:100320008F939F93AF93BF938091090190910A019E
:10033000A0910B01B0910C013091080123E0230F33
:100340002D3758F50196A11DB11D2093080180930A
:10035000090190930A01A0930B01B0930C018091C5
:100360000D0190910E01A0910F01B0911001019625
:10037000A11DB11D80930D0190930E01A0930F015B
:10038000B0931001BF91AF919F918F913F912F91A9
:100390000F900FBE0F901F90189526E8230F02961E
:1003A000A11DB11DD2CF789484B5826084BD84B57F
:1003B000816084BD85B5826085BD85B5816085BD60
:1003C00080916E00816080936E0010928100809118
:1003D00081008260809381008091810081608093A0
:1003E0008100809180008160809380008091B100C5
:1003F00084608093B1008091B00081608093B000F0
:1004000080917A00846080937A0080917A00826083
:1004100080937A0080917A00816080937A00809145
:100420007A00806880937A001092C10062E082E0D6
:100430000E94000162E083E00E94000161E084E02C
:100440000E94000161E087E00E94000161E085E018
:100450000E94000161E088E00E94000161E086E006
:100460000E94000161E089E00E9400018CE2E82E18
:10047000FF24F39490E0C92E90E0D92E82E00E94F0
:10048000A900EC0183E00E94A900C130D10509F464
:10049000BBC0CD2B59F4019749F48091060190918E
:1004A00007010196909307018093060100910601D0
:1004B00010910701C0910401D0910501B8016C0FA2
:1004C0007D1F072E000C880B990B0E94BB034B016C
:1004D0005C01B801110F880B990B0E94BB0320E04F
:1004E00030E040E251E40E944704A50194010E94DB
:1004F00011030E9483032B01709303016093020197
:10050000BE01DD0F880B990B0E94BB0320E030E099
:1005100040E251E40E944704A50194010E941103A6
:100520000E9483034B01709301016093000160E01E
:1005300085E00E94D20060E088E00E94D20060E086
:1005400087E00E94D20061E084E00E94D20061E076
:1005500089E00E94D200E89CB001E99C700DF89CF3
:10056000700D1124072E000C880B990B0E94560168
:1005700061E085E00E94D20061E088E00E94D20044
:1005800060E089E00E94D2006CE271E080E090E0DF
:100590000E94560160E084E00E94D20060E085E0A5
:1005A0000E94D20060E088E00E94D20061E086E014
:1005B0000E94D20061E087E00E94D200E49CB0017A
:1005C000E59C700DF49C700D1124072E000C880B17
:1005D000990B0E94560160E086E00E94D20061E023
:1005E00085E00E94D20061E088E00E94D2006CE2C7
:1005F00071E080E090E00E945601C114D10409F43A
:100600003DCF0E9400003ACF892B09F04FCF809157
:1006100004019091050101969093050180930401D6
:1006200045CF0E9425030C940D040E94060458F047
:100630000E94FF0340F029F45F3F29F00C94F60379
:1006400051110C9441040C94FC030E941E0468F3A5
:100650009923B1F3552391F3951B550BBB27AA277B
:1006600062177307840738F09F5F5F4F220F331FB5
:10067000441FAA1FA9F335D00E2E3AF0E0E832D07D
:1006800091505040E695001CCAF72BD0FE2F29D080
:10069000660F771F881FBB1F261737074807AB0752
:1006A000B0E809F0BB0B802DBF01FF2793585F4FC7
:1006B0003AF09E3F510578F00C94F6030C944104F7
:1006C0005F3FE4F3983ED4F3869577956795B795A9
:1006D000F7959F5FC9F7880F911D9695879597F9B4
:1006E0000895E1E0660F771F881FBB1F621773072D
:1006F0008407BA0720F0621B730B840BBA0BEE1F42
:1007000088F7E09508950E948A036894B1110C94CB
:10071000410408950E94260488F09F5798F0B92F4D
:100720009927B751B0F0E1F0660F771F881F991F26
:100730001AF0BA95C9F714C0B13091F00E94400484
:10074000B1E008950C944004672F782F8827B85F94
:1007500039F0B93FCCF3869577956795B395D9F77E
:100760003EF490958095709561957F4F8F4F9F4F88
:100770000895E89409C097FB3EF490958095709594
:1007800061957F4F8F4F9F4F9923A9F0F92F96E9DD
:10079000BB279395F695879577956795B795F11152
:1007A000F8CFFAF4BB0F11F460FF1BC06F5F7F4FEF
:1007B0008F4F9F4F16C0882311F096E911C0772301
:1007C00021F09EE8872F762F05C0662371F096E80A
:1007D000862F70E060E02AF09A95660F771F881FD9
:1007E000DAF7880F9695879597F9089597F99F6797
:1007F00080E870E060E008959FEF80EC08950024A9
:100800000A941616170618060906089500240A9475
:1008100012161306140605060895092E0394000CFB
:1008200011F4882352F0BB0F40F4BF2B11F460FF8A
:1008300004C06F5F7F4F8F4F9F4F089557FD9058B3
:10084000440F551F59F05F3F71F04795880F97FB94
:10085000991F61F09F3F79F087950895121613064E
:100860001406551FF2CF4695F1DF08C0161617067D
:100870001806991FF1CF86957105610508940895B2
:10088000E894BB2766277727CB0197F908950E9444
:100890005A040C940D040E94FF0338F00E940604D1
:1008A00020F0952311F00C94F6030C94FC03112412
:1008B0000C9441040E941E0470F3959FC1F3950FA0
:1008C00050E0551F629FF001729FBB27F00DB11DD4
:1008D000639FAA27F00DB11DAA1F649F6627B00D64
:1008E000A11D661F829F2227B00DA11D621F739F4D
:1008F000B00DA11D621F839FA00D611D221F749F5B
:100900003327A00D611D231F849F600D211D822FA1
:10091000762F6A2F11249F5750409AF0F1F08823C8
:100920004AF0EE0FFF1FBB1F661F771F881F9150F5
:100930005040A9F79E3F510580F00C94F6030C94AB
:1009400041045F3FE4F3983ED4F38695779567952D
:10095000B795F795E7959F5FC1F7FE2B880F911D1F
:0C0960009695879597F90895F894FFCFBD
:08096C00050005000100010077
:00000001FF
