:100000000C945D000C9485000C9485000C94850084
:100010000C9485000C9485000C9485000C9485004C
:100020000C9485000C9485000C9485000C9485003C
:100030000C9485000C9485000C9485000C9485002C
:100040000C94B8020C9485000C9428030C940203C1
:100050000C9485000C9485000C9485000C9485000C
:100060000C9485000C94850000000008000201003B
:100070000003040700000000000000000000000072
:10008000250028002B0000000000240027002A0083
:10009000040404040404040402020202020203032E
:1000A0000303030301020408102040800102040836
:1000B0001020010204081020810511241FBECFEF7B
:1000C000D8E0DEBFCDBF22E0ACEDB1E001C01D92B3
:1000D000A838B207E1F711E0A0E0B1E0E0EAFBE008
:1000E00002C005900D92AC3DB107D9F710E0CDE507
:1000F000D0E004C02197FE010E94C805CC35D1078D
:10010000C9F70E945A030C94CE050C94000090E0AD
:10011000FC01EC55FF4F249180579F4FFC018491C7
:10012000882399F090E0880F991FFC01EA57FF4F50
:10013000A591B491FC01E458FF4F859194918FB73C
:10014000F894EC91E22BEC938FBF089590E0FC01C2
:10015000E859FF4F2491FC01EC55FF4F3491FC010D
:10016000E057FF4FE491EE23C9F0222339F023300A
:1001700001F1A8F4213019F1223029F1F0E0EE0F5D
:10018000FF1FE458FF4FA591B4918FB7F894EC91FD
:10019000611126C030953E233C938FBF08952730D0
:1001A000A9F02830C9F0243049F7809180008F7D74
:1001B00003C0809180008F7780938000DFCF84B56B
:1001C0008F7784BDDBCF84B58F7DFBCF8091B0006E
:1001D0008F778093B000D2CF8091B0008F7DF9CF20
:1001E0003E2BDACFAF92BF92CF92DF92EF92FF9287
:1001F0000F931F93CF93DF936C017B018B01040F4F
:10020000151FEB015E01AE18BF08C017D10759F0EA
:100210006991D601ED91FC910190F081E02DC6012C
:100220000995892B79F7C501DF91CF911F910F9126
:10023000FF90EF90DF90CF90BF90AF900895FC01BA
:10024000538D448D252F30E0842F90E0821B930B3B
:10025000541710F0CF96089501970895FC01918DE1
:10026000828D981761F0A28DAE0FBF2FB11D5D96E4
:100270008C91928D9F5F9F73928F90E008958FEF86
:100280009FEF0895FC01918D828D981731F0828D3A
:10029000E80FF11D858D90E008958FEF9FEF089591
:1002A0002FB7F8948091E7019091E801A091E901BE
:1002B000B091EA012FBF8093F3019093F401A093D2
:1002C000F501B093F6018BEE91E00E94420197FF99
:1002D00026C02FB7F8948091E7019091E801A09192
:1002E000E901B091EA012FBF4091F3015091F4016F
:1002F0006091F5017091F601841B950BA60BB70B6D
:100300004091EF015091F0016091F1017091F20183
:1003100084179507A607B707B0F28FEF9FEF0895F0
:10032000CF92DF92EF92FF92CF930E945001FC0197
:1003300097FD4EC08D32910521F0C0970A9708F0C5
:1003400040C0C12CD12C7601C0E0E130F105D1F0E4
:10035000ED32F105D9F1CF01C0970A9798F4AAE0E0
:10036000B0E0A70196010E94AE056F01FF0FEE08F5
:10037000FF08C60ED71EE81EF91E80E3C81AD10872
:10038000E108F1088BEE91E00E942E010E945001DD
:10039000FC01C0970A97C8F2E130F105B1F2CC2315
:1003A00041F0F094E094D094C094C11CD11CE11CA5
:1003B000F11CC701B601CF91FF90EF90DF90CF9075
:1003C00008958BEE91E00E942E01AFCFC1E0DACF0D
:1003D000C12CD12C7601EDCFFC01918D228D892F7E
:1003E00090E0805C9F4F821B91098F73992708953D
:1003F0008BEE91E00E94EC0121E0892B09F420E0D2
:10040000822F089580E090E0892B29F00E94F80166
:1004100081110C9400000895FC01A48DA80FB92F40
:10042000B11DA35ABF4F2C91848D90E001968F731C
:100430009927848FA689B7892C93A089B1898C913B
:10044000837080648C93938D848D981306C002888A
:10045000F389E02D80818F7D80830895EF92FF9254
:100460000F931F93CF93DF93EC0181E0888F9B8DD7
:100470008C8D98131AC0E889F989808185FF15C091
:100480009FB7F894EE89FF896083E889F9898081B4
:100490008370806480839FBF81E090E0DF91CF9183
:1004A0001F910F91FF90EF900895F62E0B8D10E0A5
:1004B0000F5F1F4F0F731127E02E8C8D8E110CC014
:1004C0000FB607FCFACFE889F989808185FFF5CF5F
:1004D000CE010E940C02F1CFEB8DEC0FFD2FF11D30
:1004E000E35AFF4FF0829FB7F8940B8FEA89FB899C
:1004F00080818062CFCFCF93DF93EC01888D8823FA
:10050000B9F0AA89BB89E889F9898C9185FD03C076
:10051000808186FD0DC00FB607FCF7CF8C9185FF5B
:10052000F2CF808185FFEDCFCE010E940C02E9CF92
:10053000DF91CF910895CF93DF93FC0101900020CC
:10054000E9F73197AF01481B590BBC018BEE91E0E5
:100550000E94F200EC0142E050E067E171E08BEEB6
:1005600091E00E94F2008C0F9D1FDF91CF910895C2
:100570001F920F920FB60F9211242F933F938F93D8
:100580009F93AF93BF938091E7019091E801A09171
:10059000E901B091EA013091E60123E0230F2D3704
:1005A00058F50196A11DB11D2093E6018093E70146
:1005B0009093E801A093E901B093EA018091E201F0
:1005C0009091E301A091E401B091E5010196A11D94
:1005D000B11D8093E2019093E301A093E401B093F5
:1005E000E501BF91AF919F918F913F912F910F9016
:1005F0000FBE0F901F90189526E8230F0296A11D9D
:10060000B11DD2CF1F920F920FB60F9211242F93CC
:100610003F934F935F936F937F938F939F93AF938A
:10062000BF93EF93FF938BEE91E00E940C02FF913A
:10063000EF91BF91AF919F918F917F916F915F915A
:100640004F913F912F910F900FBE0F901F901895D3
:100650001F920F920FB60F9211242F938F939F9397
:10066000EF93FF93E091FB01F091FC018081E09119
:100670000102F091020282FD1BC090818091040270
:100680008F5F8F7320910502821741F0E091040281
:10069000F0E0E551FE4F958F80930402FF91EF91BA
:1006A0009F918F912F910F900FBE0F901F901895D3
:1006B0008081F4CF789484B5826084BD84B58160F4
:1006C00084BD85B5826085BD85B5816085BD80911D
:1006D0006E00816080936E00109281008091810095
:1006E000826080938100809181008160809381008D
:1006F000809180008160809380008091B10084604F
:100700008093B1008091B00081608093B0008091AF
:100710007A00846080937A0080917A00826080936E
:100720007A0080917A00816080937A0080917A00CB
:10073000806880937A001092C100E091FB01F091F3
:10074000FC0182E08083E091F701F091F8011082D2
:10075000E091F901F091FA018FEC8083109203028D
:10076000E091FF01F091000286E08083E091FD01BD
:10077000F091FE01808180618083E091FD01F09124
:10078000FE01808188608083E091FD01F091FE018F
:10079000808180688083E091FD01F091FE0180817D
:1007A0008F7D808384E00E94870085E00E9487001F
:1007B00086E00E94870087E00E94870088E00E9410
:1007C000870089E00E948700C8EED3E083E0282EEE
:1007D000312C90EA892E96E8992EAA24A394B12C64
:1007E00028EE422E23E0522E612C712C00E010E006
:1007F00080910401882309F459C08BEE91E00E9496
:10080000EC01892B09F046C08AE191E00E949B022D
:100810008092EF019092F001A092F101B092F2016A
:100820000E94900170930301609302014092EF01D6
:100830005092F0016092F1017092F20188E391E030
:100840000E949B028092EF019092F001A092F10130
:10085000B092F2010E949001709301016093000137
:100860004092EF015092F0016092F1017092F2011A
:1008700089E591E00E949B0285E791E00E949B023E
:100880008DE891E00E949B028BEE91E00E947B023A
:10089000109204010115110509F4AACF0E94F80174
:1008A000882309F4A5CF0E940000A0CF8FB7F89449
:1008B000C090E701D090E801E090E901F090EA01F2
:1008C0008FBF8091E0019091E101009709F06BC02A
:1008D00060E085E00E94A60060E088E00E94A6003B
:1008E00060E087E00E94A60061E084E00E94A6002C
:1008F00061E089E00E94A6008091DC019091DD0119
:10090000A091DE01B091DF01B701A601481B590B90
:100910006A0B7B0B20910001309101012C9FC001DB
:100920002D9F900D3C9F900D1124092E000CAA0BB9
:10093000BB0B481759076A077B0770F0C092DC01B0
:10094000D092DD01E092DE01F092DF0121E030E0A3
:100950003093E1012093E0018BEE91E00E94EC01E5
:10096000892B09F497CF8BEE91E00E942E018F7DA9
:10097000823509F08FCF41E0409304011092E101EC
:100980001092E0011092DC011092DD011092DE0164
:100990001092DF018AEB91E00E949B028DEB91E0C7
:1009A0000E949B0277CF8130910589F561E085E057
:1009B0000E94A60061E088E00E94A60060E089E055
:1009C0000E94A6008091DC019091DD01A091DE01E2
:1009D000B091DF01A7019601281B390B4A0B5B0B75
:1009E000DA01C901883E9340A105B10508F4B4CFEE
:1009F000C092DC01D092DD01E092DE01F092DF01D5
:100A000042E050E05093E1014093E001A5CF8230F5
:100A1000910509F044C060E084E00E94A60060E017
:100A200085E00E94A60060E088E00E94A60061E0E8
:100A300086E00E94A60061E087E00E94A600809107
:100A4000DC019091DD01A091DE01B091DF01B701E1
:100A5000A601481B590B6A0B7B0B209102013091B8
:100A600003012C9FC0012D9F900D3C9F900D1124E0
:100A7000092E000CAA0BBB0B481759076A077B0706
:100A800008F46ACFC092DC01D092DD01E092DE0171
:100A9000F092DF013092E1012092E0015DCF0397F7
:100AA00009F05ACF60E086E00E94A60061E085E090
:100AB0000E94A60061E088E00E94A6008091DC010F
:100AC0009091DD01A091DE01B091DF01A7019601B7
:100AD000281B390B4A0B5B0BDA01C901883E934096
:100AE000A105B10508F438CFC092DC01D092DD0138
:100AF000E092DE01F092DF011092E1011092E0013C
:100B00002BCFEBEEF1E01382128288EE93E0A0E0AF
:100B1000B0E084839583A683B78389E091E09183D5
:100B2000808385EC90E09587848784EC90E09787BC
:100B3000868780EC90E0918B808B81EC90E0938BAA
:100B4000828B82EC90E0958B848B86EC90E0978B87
:100B5000868B118E128E138E148E08950E94B90505
:100B6000A59F900DB49F900DA49F800D911D112401
:100B70000895A29FB001B39FC001A39F700D811D76
:100B80001124911DB29F700D811D1124911D089596
:100B9000EE0FFF1F0590F491E02D0994F894FFCF1C
:100BA0000500050001000000002E02F2001F017B7D
:100BB00002EC012E0142010D0A00496C6B206C61B0
:100BC0006D6261207375726573696E692067697201
:100BD000696E697A3A200A00496B696E6369206C14
:100BE000616D6261207375726573696E69206769F2
:100BF00072696E697A3A200A0044656765726C65AD
:100C00007220626173617269796C612067697269CF
:100C10006C64692E004C616D62616C617220617957
:100C200061726C616E69796F722E2E2E004C616D4F
:100C300062616C6172692073696669726C616D6171
:100C40006B206963696E207220747573756E612004
:100C5000626173696E2E2E200A000A200059656EAB
:100C600069206C616D6261207375726573696E696C
:0C0C700020676972696E697A3A20000002
:00000001FF
