:100000000C9463000C948B000C948B000C948B006C
:100010000C948B000C948B000C948B000C9461045A
:100020000C948B000C948B000C948B000C948B0024
:100030000C948B000C948B000C948B000C948B0014
:100040000C9417040C948B000C948B000C948B0074
:100050000C948B000C948B000C948B000C948B00F4
:100060000C948B000C948B000000000024002700EF
:100070002A000000000023002600290000000008DC
:10008000000201000003040700000000000000005F
:10009000010204081020408001020408102001021F
:1000A0000408102000000000250028002B00040494
:1000B0000404040404040202020202020303030310
:1000C00003030200710511241FBECFEFD8E0DEBF8D
:1000D000CDBF11E0A0E0B1E0E2EBFBE002C0059093
:1000E0000D92A23AB107D9F721E0A2EAB1E001C02E
:1000F0001D92A43DB207E1F710E0C3E6D0E004C0D2
:100100002197FE010E94D105C236D107C9F70E948E
:10011000BD040C94D7050C940000833081F028F4C2
:10012000813099F08230A9F008958730A9F08830A5
:10013000C9F08430B1F4809180008F7D03C080913C
:1001400080008F7780938000089584B58F7784BD79
:10015000089584B58F7DFBCF8091B0008F77809319
:10016000B00008958091B0008F7DF9CFCF93DF93D9
:10017000282F30E0F901E458FF4F8491F901E0574E
:10018000FF4FD491F901E255FF4FC491CC23A1F068
:1001900081110E948D00EC2FF0E0EE0FFF1FEE5852
:1001A000FF4FA591B491EC91ED2381E090E009F42B
:1001B00080E0DF91CF91089580E090E0FACF1F9327
:1001C000CF93DF93282F30E0F901E458FF4F84915B
:1001D000F901E057FF4FD491F901E255FF4FC49167
:1001E000CC23A9F0162F81110E948D00EC2FF0E096
:1001F000EE0FFF1FEC55FF4FA591B4918FB7F89408
:10020000EC91111108C0D095DE23DC938FBFDF91F4
:10021000CF911F910895DE2BF8CFCF93DF9390E01D
:10022000FC01E057FF4F249182559F4FFC018491C0
:100230008823D1F090E0880F991FFC01E859FF4F07
:10024000A591B491FC01EC55FF4FC591D49161117A
:100250000EC09FB7F8948C91E22FE0958E238C937B
:100260002881E223E8839FBFDF91CF9108958FB764
:10027000F894EC91E22BEC938FBFF6CFCF92DF9204
:10028000EF92FF92CF936C0180910001873049F08B
:100290008F3F09F444C0CF91FF90EF90DF90CF9053
:1002A0000895E2ECF0E0C491C7FDF5CF61E087E08E
:1002B0000E940D01F12CE12CCC23D9F0960150E0E5
:1002C00040E0C23009F09AC07A0160E970ED83E045
:1002D00090E00E949005BA01A901415051096109BD
:1002E000710993E04F3F51056105710509F00CF468
:1002F000C1C068E478EE81E090E0A70196010E9419
:100300009005BA01A901415051096109710994E0B0
:10031000C111B0C085B5887F836085BDB7C087E057
:1003200080930001E2ECF0E0C491CF3F09F4B3CF39
:10033000C13021F150F0C23009F43EC0C7FDABCF4F
:1003400061E087E00E940D01B9CF14BC15BC84B5F3
:10035000826084BD85B5816085BDE5EBF0E0E49108
:10036000F0E0EE0FFF1FEC55FF4F85919491E7E908
:10037000F0E0E491E093AF01C0E098CF10928000EC
:10038000109281008091810088608093810080912B
:100390008100816080938100E5EBF0E0E491F0E082
:1003A000EE0FFF1FEC55FF4F85919491E7E9F0E0C8
:1003B000E491E093AE017ACF1092B0001092B100B8
:1003C0008091B00082608093B0008091B100816024
:1003D0008093B100E5EBF0E0E491F0E0EE0FFF1F59
:1003E000EC55FF4F859194919093AD018093AC01B2
:1003F000E7E9F0E0E491E093AB0158CF60E072E10F
:100400008AE790E00E949005BA01A9014150510984
:1004100061097109C130A1F580918100887F8160F7
:100420008093810050938900409388008FEF9FEF65
:10043000DC018093B4019093B501A093B601B09311
:10044000B70180916F00826080936F0024CF40934A
:10045000B3008FEF9FEFDC018093B0019093B10167
:10046000A093B201B093B301809170008260809339
:10047000700011CF8091B100887F892B8093B100EB
:10048000C13081F2C23019F3C11105CF47BD8FEFE2
:100490009FEFDC018093B8019093B901A093BA015A
:1004A000B093BB0180916E00826080936E00F3CEAA
:1004B0009091000189130BC0E2ECF0E0E4919FEF12
:1004C00090930001E13049F028F0E23061F060E003
:1004D0000C94DF0010926E00FACF90916F009D7F18
:1004E00090936F00F4CF909170009D7F9093700077
:1004F00091E09093B0009091B100987F94609093B8
:10050000B1001092B300E3CFAF92BF92CF92DF92CF
:10051000EF92FF920F931F93CF93DF936C017B01B8
:100520008B01040F151FEB015E01AE18BF08C01749
:10053000D10759F06991D601ED91FC910190F081BC
:10054000E02DC6010995892B79F7C501DF91CF917F
:100550001F910F91FF90EF90DF90CF90BF90AF90E1
:100560000895089590E080E00895FC010190002036
:10057000E9F73197AF01481B590BBC018CEB91E0B7
:100580000C948402CF93DF93EC0160E08E810E9493
:10059000DF0061E08E810E94DF0060E08E810E94BA
:1005A000DF008BE891E00197F1F7DF91CF9108959B
:1005B000CF92DF92EF92FF920F931F93CF93DF932F
:1005C0006C017C0187E0E80EF11CD0E0C0E0062F52
:1005D00010E0B8010C2E02C0759567950A94E2F7F9
:1005E0006170F70181917F010E94DF002196C43084
:1005F000D10579F7C601DF91CF911F910F91FF903F
:10060000EF90DF90CF900C94C202CF92DF92EF92E6
:10061000FF920F931F93CF93DF93EC01F62E642F7D
:100620008C810E94DF008D818F3F19F060E00E9475
:10063000DF000F2D10E08F8584FF25C06E0187E05D
:10064000C80ED11CF12CE12CB8010E2C02C07595FE
:1006500067950A94E2F76170F60181916F010E943B
:10066000DF00FFEFEF1AFF0A88E0E816F10461F7F8
:10067000CE01DF91CF911F910F91FF90EF90DF900E
:10068000CF900C94C202B80184E0759567958A9565
:10069000E1F7CE010E94D8026F2DCE01DF91CF91FC
:1006A0001F910F91FF90EF90DF90CF900C94D802A4
:1006B00040E0682F8CEB91E00C940503CF93DF931F
:1006C000613029F09091CB0198609093CB016093B9
:1006D000CF011092D00190E49093D1018093D20188
:1006E000805C8093D30161E08091C0010E940D0184
:1006F0008091C1018F3F19F061E00E940D0161E01E
:100700008091C2010E940D01CCEBD1E09E012C5BD7
:1007100031408091CB0184FD0BC084E090E02196B4
:100720002817390744F461E08E810E940D01EECF55
:1007300088E090E0F4CF8BE39DE00197F1F760E073
:100740008091C0010E94DF0060E08091C2010E94A0
:10075000DF008091C1018F3F19F060E00E94DF004F
:100760008091CB0184FD39C063E08CEB91E00E9465
:10077000D802CBE4D6E4CE010197F1F763E08CEB2D
:1007800091E00E94D8022197F1F763E08CEB91E0B1
:100790000E94D80283E592E00197F1F762E08CEBCA
:1007A00091E00E94D8028091CB0180620E945803A0
:1007B00084E08093CC018CE00E94580381E00E9489
:1007C00058038BE39FE10197F1F782E08093CD011D
:1007D00086E0DF91CF910C94580380620E94580309
:1007E0008BE496E40197F1F78091CB0180620E943F
:1007F000580383E592E00197F1F78091CB01806285
:100800000E945803D0CF9091CF01891710F08FEF3D
:10081000890FE82FF0E0E454FE4F848980680C943F
:10082000580341E00E94050381E090E008951F9283
:100830000F920FB60F9211242F933F938F939F9394
:10084000AF93BF938091A7019091A801A091A901B6
:10085000B091AA013091A60123E0230F2D3758F55E
:100860000196A11DB11D2093A6018093A70190932D
:10087000A801A093A901B093AA018091A20190912F
:10088000A301A091A401B091A5010196A11DB11DE4
:100890008093A2019093A301A093A401B093A5011A
:1008A000BF91AF919F918F913F912F910F900FBE6C
:1008B0000F901F90189526E8230F0296A11DB11DD9
:1008C000D2CF1F920F920FB60F9211242F933F9306
:1008D0004F935F936F937F938F939F93AF93BF9348
:1008E000EF93FF938091B0019091B101A091B2017B
:1008F000B091B301892B8A2B8B2BD1F19091AB0155
:10090000E091AC01F091AD018081892780838091D5
:10091000B0019091B101A091B201B091B30118164C
:1009200019061A061B069CF48091B0019091B10142
:10093000A091B201B091B3010197A109B1098093CF
:10094000B0019093B101A093B201B093B301FF91B4
:10095000EF91BF91AF919F918F917F916F915F9137
:100960004F913F912F910F900FBE0F901F901895B0
:10097000809100010E945802EACF789484B5826089
:1009800084BD84B5816084BD85B5826085BD85B533
:10099000816085BD80916E00816080936E001092B1
:1009A000810080918100826080938100809181002C
:1009B00081608093810080918000816080938000BD
:1009C0008091B10084608093B1008091B00081601B
:1009D0008093B00080917A00846080937A00809147
:1009E0007A00826080937A0080917A00816080939F
:1009F0007A0080917A00806880937A001092C1001A
:100A000060E082E00E940D0160E083E00E940D0141
:100A100061E087E00E940D0161E086E00E940D0127
:100A200064E084E10E945E0380E00E9403048DE0A4
:100A300091E00E94B50281E00E94030486E291E009
:100A40000E94B50200E010E082E00E94B6007C0146
:100A500083E00E94B600EC0183E00E94030480E47E
:100A600091E00E94B50283E00E940304EA94EF281B
:100A7000F9F4219791F480ED97E00E943E0160E047
:100A800086E00E94DF0085E591E00E94B502011535
:100A90001105D1F20E940000D7CF88EE93E00E94AA
:100AA0003E0160E086E00E94DF0087E691E0EDCF46
:100AB000219759F484EF91E00E943E0160E086E0C6
:100AC0000E94DF008AE791E0E0CF81E991E00E9497
:100AD000B50287E00E94580261E086E00E94DF00D4
:100AE000D6CFECEBF1E01382128285E091E09183A6
:100AF00080838DE084838FEF85838CE086838BE019
:100B000087838AE0808789E0818788E082871386EF
:100B1000148615861686178661E080E10C945E03C4
:100B2000052E97FB1EF400940E94A70557FD07D0E1
:100B30000E94AF0507FC03D04EF40C94A705509516
:100B40004095309521953F4F4F4F5F4F08959095B9
:100B50008095709561957F4F8F4F9F4F0895A1E2CB
:100B60001A2EAA1BBB1BFD010DC0AA1FBB1FEE1F27
:100B7000FF1FA217B307E407F50720F0A21BB30B72
:100B8000E40BF50B661F771F881F991F1A9469F7EE
:100B900060957095809590959B01AC01BD01CF014A
:100BA0000895EE0FFF1F0590F491E02D0994F8943D
:020BB000FFCF75
:100BB200FF0000000011048402B202B102202045AD
:100BC2005620475556454E4C494B205349535445A0
:100BD2004D4920202000202059414E47494E2056A1
:100BE200452047415A20414C41524D492020200086
:100BF20020202020202020202020202020202020F3
:100C0200202020200020202020205445484C494B01
:100C1200452020202020002020202059616E676975
:100C22006E20566172202020200020202020476163
:100C32007A204B616361676920566172202020200F
:100C42000020202020477576656E6C6920202020C8
:020C52000000A0
:00000001FF
